:020000040800F2
:100000009806002081020008651D000801170008FD
:10001000611D0008B90D0008891D000800000000DE
:100020000000000000000000000000006D1D00083E
:10003000BD0D000800000000691D0008711D0008CA
:100040009B0200089B0200089B0200089B0200081C
:100050009B0200089B0200089B0200089B0200080C
:100060009B0200089B0200089B0200089B020008FC
:100070009B0200089B0200089B0200089B020008EC
:100080009B0200089B0200089B0200089B020008DC
:100090009B0200089B0200089B0200089B020008CC
:1000A0009B0200089B0200089B0200089B020008BC
:1000B0009B0200089B0200089B0200089B020008AC
:1000C0009B0200089B0200089B0200089B0200089C
:1000D0009B0200089B0200089B0200089B0200088C
:1000E0009B0200089B0200089B0200089B0200087C
:1000F0009B0200089B0200089B0200089B0200086C
:100100009B0200089B0200089B0200089B0200085B
:100110009B0200089B0200089B0200089B0200084B
:100120009B0200089B0200089B0200089B0200083B
:100130009B0200089B0200089B0200089B0200082B
:100140009B0200089B0200089B0200089B0200081B
:100150009B0200089B0200089B0200089B0200080B
:100160009B0200089B0200089B0200089B020008FB
:100170009B0200089B0200089B0200080000000090
:100180009B0200089B02000800F002F800F068F8EB
:1001900014A696E8000CB244B344DA4501D100F04D
:1001A0005FF8BAE80F000FA696E83000A5EB04054B
:1001B00004EB0607AAEB0704A7F101074FEA1515A0
:1001C0004FEA3414A4F10104AC4201D300F048F822
:1001D00013F0010F18BFFB1A43F0010300F001F800
:1001E000DBE71847342D0000542D0000103A24BFDF
:1001F00078C878C1FAD8520724BF30C830C144BF8C
:1002000004680C6070470000704700000023002461
:1002100000250026103A28BF78C1FBD8520728BF16
:1002200030C148BF0B607047662902F0FD85642924
:1002300000F0DA80002070471FB502F0E8FD00F002
:10024000C1F904000020002102F006FC401C60609F
:100250000020002102F016FCE0601FBD10B510BDAB
:1002600000F074FD1146FFF7E7FF01F053FE00F0C8
:1002700092FD03B4FFF7F2FF03BC00F095FD000010
:100280000948804709480047FEE7FEE7FEE7FEE72A
:10029000FEE7FEE7FEE7FEE7FEE7FEE70448054966
:1002A000054A064B70470000751D000889010008CB
:1002B0009800002098060020980200209802002054
:1002C00010B500F07FF9001D10BD00BF8D270000A4
:1002D00053EA020C00F069802DE9F04B4FF0000664
:1002E000002B1FBFB3FA83F503FA05F424FA05F6D1
:1002F0005E4012BF1643B2FA82F502FA05F4C5F168
:1003000020051EBF22FA05FC44EA0C04203556EAFB
:10031000044C4FEA144418BF641C4FF000084FF01F
:100320000009904271EB030C39D3002919BFB1FACF
:1003300081F701FA07F6B0FA80F700FA07F6C7F17D
:1003400020071EBF20FA07FC46EA0C062037B6FB42
:10035000F4FCA7EB0507103F07F01F0BCBF12006BD
:100360002CFA06F60CFA0BFB44BFB3460026202FEE
:10037000A4BF5E464FF0000B5BEA060C08BF4FF0CF
:10038000010B19EB0B0948EB0608ABFB027C06FBE3
:1003900002CC0BFB03CCC01B71EB0C01C1E70B467D
:1003A000024641464846BDE8F08B13B5084318BFE6
:1003B0004FF0FF300146AFF30080BDE81C407047AE
:1003C0000FB41CB5074B06AA7B44694600900598FC
:1003D00000F069FB0020694600F078FB1CBC5DF86A
:1003E00014FB0000010700002DE9F041064600243F
:1003F00010687529314616A510D0AFF3008000288B
:1004000002DA404213A507E031688A0701D512A538
:1004100002E0490704D511A5012401E0AFF30080F3
:1004200000210A2206F1240709E0B0FBF2FCB0FB30
:10043000F2F302FB1C00303078541846491C0028A7
:10044000F3D123462A463046BDE8F04100F0BEB85D
:10045000000000002D0000002B0000002000000024
:100460002DE9F0474FF0000A89460446C0F820A065
:100470002046E1688847002876D0252806D0D4E9B0
:1004800001219047206A401C2062F1E7E168204684
:1004900000258847C4F81CA006460027C4F818A009
:1004A0002A2E09D0304602F0CFFA38B304EB870881
:1004B000303EC8F8186019E059F8041B204604EBD8
:1004C00087029161E1688847012F064618D1E069EB
:1004D000002820DA25F020051DE0D8F8180000EBF0
:1004E000800006EB40003038C8F818002046E1686C
:1004F0008847064602F0A8FA0028EED1012F0AD05C
:100500002E2E08D12046E16888477F1C0646022F20
:1005100045F02005C4DBA069002803DA404245F01D
:100520000105A061E80701D025F01005B6B1A6F1DC
:100530004100192802D8203645F400654A46314664
:10054000204625604D46FFF76FFE58B1012806D0C2
:10055000ED1D25F0070000F1080989E704E005F129
:10056000040985E730468AE7206ABDE8F0874FF046
:10057000000200B5134694469646203922BFA0E8F3
:100580000C50A0E80C50B1F12001BFF4F7AF0907FF
:1005900028BFA0E80C5048BF0CC05DF804EB8900F0
:1005A00028BF40F8042B08BF704748BF20F8022B33
:1005B00011F0804F18BF00F8012B7047704770474B
:1005C0007047000000487047300000202DE9F047D8
:1005D0000D4699469246044600F1240801688806B3
:1005E00004D5E06921F01001216000E00120A8425B
:1005F00001DD471B00E00027A1697A1902EB090021
:10060000081AA0612078C00602D42046AFF300800B
:10061000002608E0D4E901211AF806009047206A74
:10062000401C761C20624E45F4DB2078C0060AD5BB
:100630002046AFF3008006E0D4E901213020904746
:10064000206A401C2062381EA7F10107F4DC07E095
:10065000D4E9012118F805009047206A401C206267
:10066000281EA5F10105F3DC2046AFF300802078B9
:10067000000602D50220BDE8F0870120FBE72DE946
:10068000FF4F0C461E464FF0FF378BB0D2E90001FA
:10069000DDF860800A908A46C1F30A5505B93D46E7
:1006A000002108464FF00000BAF1000F00F44000AE
:1006B00005DA00EB80004FF4400101EA50004FEAF8
:1006C0009059B9F1010F00DDB9460A9850EA4A0085
:1006D0000ED044F61050A5F2FF3545432F14B8F163
:1006E000000F1ED07542291E1EDDC9F100021CE05C
:1006F000B8F1010F4FF0000001D0302103E0F243C8
:1007000005E02154401CB042FBDB304600220021B2
:1007100021540B99C1F80880C1E900200FB0BDE851
:10072000F08FBD1B6D1CDEE74A4600DA694206A861
:1007300000F05CFA06AB93E8070003AB83E8070020
:1007400050460A9901F09FFD8DE80700A0F5005082
:100750001F3800900398002D0ADD42F21F014A461F
:100760000844002303A90390684602F009F809E051
:10077000A0F500504A461F38002303A9039068469D
:1007800002F013F88DE807000004000C03D04FF0CE
:10079000FF30410800E01046B8F1000F03D00022FE
:1007A000009215461EE0751E05D400F099F930320E
:1007B00062556D1EF9D5B3460122084302D00022CE
:1007C0007F1C04E02078302801D100227F1E002AFF
:1007D000099784D01DE0112D07DA00F081F930323D
:1007E00062556D1C50EA0102F5D1084302D0009811
:1007F000C8B10EE00021681E05E0235C625C635412
:100800002254401E491C8142F7DBAB46A81B401E08
:100810000990002004F80B000B98099AC0F8088092
:10082000C0E9002B7AE711264FF0000857E72DE9C1
:10083000F04F88460446D21D22F0070191B0D1E95D
:100840000001CDE90A0102F0E7F802460B98C00F5B
:1008500001D02D2007E02068810701D52B2002E080
:10086000202101EAC000032A099001D0072A05DBF4
:1008700003464146204600F079F90BE120788006D6
:1008800001D5E06900E00620B8F1650F814606D089
:10089000B8F1660F18D0B8F1670F70D131E00020C1
:1008A000B9F1110F009001DB112301E009F10103FF
:1008B0000AAA01A90CA8FFF7E2FEDDE90C700026E8
:1008C00009F10105834647E001204B4600904FF0B7
:1008D00000470AAA01A90CA8FFF7D1FEDDE90DB077
:1008E0000C995D46002610B909F101000D18B9EB0D
:1008F000050003D4C0F1FF3609F10105A5EB09009D
:100900002BE0B9F1010F01DA4FF001090020B9F134
:10091000110F0090484601DD112300E003460AAAAA
:1009200001A90CA8FFF7ABFEDDE90C704D460026CF
:100930008346207800070AD4AB4500DA5D4601A85B
:10094000012D04DD411911F8011C302907D04F4554
:1009500002DA17F1040F04DA012082460FE06D1E5F
:10096000EEE7002F02DCED1B3E4403E0781CA842BA
:1009700000DD7D1CB81B00F1010A4FF00047207814
:10098000000703D4AA4501DB4FF0FF3A0021B7F17D
:10099000004F0DF143088DF8431024D002202B2383
:1009A000002F01DA7F422D230A21021EA0F101004F
:1009B00000DC5FB197FBF1FC97FBF1F201FB1C7CC3
:1009C00017460CF1300C08F801CDEEE7A8F1010054
:1009D00003702188090501D5452100E06521A0F1BA
:1009E000010800F8011C09980FA9A1EB0807FF1DD9
:1009F00000B10120411901EBEA70A1693844081ADD
:100A0000401EA0612078C00602D42046AFF30080CB
:100A1000099828B1D4E901219047206A401C20623E
:100A20002078C00622D52046AFF300801EE0002EBD
:100A300004DBB34502DD01A8805D00E03020D4E98D
:100A400001219047206A401C2062761CAAF1010017
:100A50005FEA000A0AD1FFF7B5FDC0680168405C93
:100A6000D4E901219047206A401C2062281EA5F18C
:100A70000105DCDC07E0D4E9012118F8010B9047FF
:100A8000206A401C2062381EA7F10107F3DC2046D3
:100A9000AFF30080032011B041E6000001694A1C59
:100AA00002610878704700B58FB0CDE901310021AF
:100AB000059105497944CDE9031011466846FFF7D1
:100AC000CFFC0FB000BD0000E5FFFFFF0A6802F891
:100AD000010B0A60704700000048704710000020BA
:100AE00030B5B0F10A0271F100034FEA900E4EEA00
:100AF000817EB0EB0E0061EB91014FEA101E4EEAD1
:100B0000017E10EB0E0041EB11114FEA102E4EEA60
:100B1000016E10EB0E0041EB11214FEA104E4EEA30
:100B2000014E10EB0E0041EB1141401841F1000164
:100B30004FEAD00040EA41704FEAD1014FEA810408
:100B400044EA907410EB800544EB01046D1944EB0A
:100B50000404521BA3414FF0000348BF0A3200D5E2
:100B600030BD401C41F1000130BD00002DE9F041D5
:100B70001F46044603260168072A01F4006004DBCF
:100B800008B116A505E016A503E008B115A500E01B
:100B900015A521F010002060A069C01EA0610FB152
:100BA000401EA0612046AFF300804FB1D4E901217F
:100BB00038469047206A401C2062C01C206206E034
:100BC000206AFAE7D4E9012115F8010B9047761E57
:100BD000F8D22046AFF30080BDE8F0814E414E00D0
:100BE0006E616E00494E4600696E66002DE9F04761
:100BF000814616468AB0354878440DC88DE80D0008
:100C000032487844801C03AC0DC884E80D0041F6DE
:100C10009B300844372190FBF1F290FBF1F5A5F1F0
:100C2000800501FB12041B3C02D56442012000E058
:100C30000020DFF898A080460027FA44AAF1BE0AF7
:100C40000EE0E0070AD03246684607EB4701012371
:100C50000AEB810101F0A9FD8DE8070064107F1CFB
:100C6000002CEED1194F7F44AE3F19E0E80715D0B4
:100C700007EB04100DF1180A90E80E008AE80E0048
:100C8000C068F04201D1981908903246012306A9A4
:100C900003A801F08AFD03AB83E807006D10641C14
:100CA000002DE3D14FF0010332466946B8F1000F41
:100CB00003A802D001F064FD01E001F076FDC9E96E
:100CC0000001C9F808200AB0BDE8F087AC22000096
:100CD00030B44FF0013C50F8042B51F8043BCCFAEF
:100CE00052F4D51A20D1FCB950F8042B51F8043B2A
:100CF000CCFA52F4D51A17D1B4B950F8042B51F8E4
:100D0000043BCCFA52F4D51A0ED16CB950F8042B2E
:100D100051F8043BCCFA52F4D51A05D1002CDAD0A4
:100D200030BC4FF00000704729BAB1FA81F111F0E0
:100D30001801D1F120008440F2D1CA40CB4012F01A
:100D4000FF0213F0FF0330BCD01A70477546FFF75F
:100D5000C3FEAE4605006946534620F007008546AF
:100D600018B020B5FFF79AFABDE820404FF0000612
:100D70004FF000074FF000084FF0000BAC46ACE816
:100D8000C009ACE8C009ACE8C009ACE8C00921F072
:100D900007018D46704710B50446AFF3008020462A
:100DA000BDE81040FFF765BA01491820ABBEFEE769
:100DB0002600020070470000FEE7000070470000B8
:100DC000B0B5044600F0E6F8054640F20000C2F275
:100DD00000000078611C18BF044400BF00F0DAF87E
:100DE000401BA042FAD3B0BD2DE9F04F83B000F113
:100DF000200200F13E4741F60045009207F1FF77DF
:100E0000C4F2020508224FEAB726A84208BF07220B
:100E100000254FF000084FF00009072E38BF4FEAB9
:100E2000B72201920AE000BF09F1010908F10208A6
:100E3000B9F1100F05F1040500F0A2800F6801223E
:100E400002FA09FE17EA0E0AEED0D1F804C0032216
:100E50000CF003077E1E02FA08F4012E6FEA040B61
:100E600012D88468CE6804EA0B0406FA08F6344304
:100E70008460446824EA0E06CCF3001404FA09F4F2
:100E80002643466004E000BF032F01D103271EE084
:100E9000C6688C6806EA0B0604FA08F42643022F9B
:100EA000C66014D16FF00302009E02EA590756F89B
:100EB00007C005F01C040F220B69A2402CEA0202B5
:100EC000A3401A43F251D1F804C00CF003070268A2
:100ED00007FA08F302EA0B021A431CF4403F0260CF
:100EE000A2D0002243F644030292C4F202031A681D
:100EF00043F6004442F480421A601A68C4F20104C6
:100F000002F480420292029A29F003024FF6084C42
:100F10002244CFF6FF7C52F80C3005F00C070F2668
:100F2000BE40B343019E06FA07F73B4342F80C303C
:100F3000A2684B6842EA0A0743F60C4CDE0258BF2F
:100F400022EA0A07A760C4F2010CDCF800209E0226
:100F500042EA0A0758BF22EA0A07CCF80070626822
:100F60009E0342EA0A0758BF22EA0A07676022681E
:100F7000DB0342EA0A0758BF22EA0A07276053E761
:100F800003B0BDE8F08F0000002A08BF09048161AA
:100F90007047000040F29400C2F200000068704701
:100FA00040F2000040F29401C2F20000C2F20001DF
:100FB00000780A68104408607047000080B543F666
:100FC0000040C4F20200016841F400710160016850
:100FD00041F480610160016841F480710160032087
:100FE00000F074F80F2000F005F800F027F800205A
:100FF00080BD000070B540F20006C2F2000640F26B
:101000000C013278C2F200014FF47A730968B3FB25
:10101000F2F20446B1FBF2F1084600F05BFB0F2C44
:101020004FF0010508D838B94FF0FF3021460022B3
:10103000002500F01FF87460284670BD82B00020C3
:1010400043F640010190C4F202014A6842F4804232
:101050004A604A6802F480420192019A009008684E
:1010600040F080500860086800F0805000900098C0
:1010700002B0704710B54EF60C5CCEF2000CDCF8F6
:101080000030C3F3022E8EF00704042C28BF042482
:10109000BEF103034FF0FF3E0EFA04F438BF002305
:1010A000A14399400EFA03F39A43114300F00F0253
:1010B00000F160430901043A03F5644362440028E7
:1010C00048BF02F10C03197010BD00004EF60C5120
:1010D000CEF200010A684FF6FF031A4060F30A22BD
:1010E00042F0806040F0FD7008607047002804BF47
:1010F000012070472DE9F04143F60808C4F20208C8
:101100000446D8F8F8030D4600F00700814207D9DD
:1011100088F8F853D8F8F80300F00700A84277D110
:101120002068810717D5410705D5D8F8001041F48C
:10113000E051C8F80010010705D5D8F8001041F4B7
:101140006041C8F80010D8F80010A26821F0F00142
:101150001143C8F80010C00740D1D8F8F80300F0D8
:101160000700854207D288F8F853D8F8F80300F052
:101170000700A8424CD12068410707D5D8F80010D5
:10118000E26821F4E0511143C8F80010000708D5C7
:10119000D8F80000216920F4604040EAC100C8F896
:1011A000000000F089F8D8F8001042F6C062C1F3E0
:1011B0000311C0F60002515C40F20C0220FA01F16A
:1011C00040F20400C2F200000068C2F200021160A6
:1011D000FFF710FF0020BDE8F08100BF6068811EAE
:1011E000022907D258F8081C89015CBF0120BDE81C
:1011F000F08111E0012807D158F8081C89035CBF71
:101200000120BDE8F08107E058F8081C890703D4E5
:101210000120BDE8F08100BFD8F8001021F00301E3
:101220000843C8F80000FFF7B5FE064641F28837CC
:10123000D8F80000616800F00C00B0EB810F8CD092
:10124000FFF7A8FE801BB842F2D90320BDE8F08169
:101250000F22026043F60802C4F20202136803F090
:1012600003034360136803F0F0038360136803F41F
:10127000E053C360D2F800C04FF4E05303EADC034C
:101280000361D2F8F80300F007000860704700001F
:1012900040F20C0043F60801C2F20000C4F2020161
:1012A0000068096842F6D062C1F38221C0F60002EC
:1012B000515CC8407047000010B543F60404C4F206
:1012C00002046168C1F3810142F20040C0F2F400FF
:1012D000DFE801F002040A0210BD00BF47F640003B
:1012E000C0F27D1010BD00BF20682168236849024C
:1012F00047F64001C0F27D1100F03F02C3F38810B1
:101300005CBF42F20041C0F2F401A1FB00010023E6
:10131000FEF7DEFF21680222C1F3014102EB410129
:10132000B0FBF1F010BD0000002804BF01207047A1
:101330002DE9F04182B00446007843F60006C0076C
:10134000C4F202060CD0B06800F00C00042840F093
:1013500081803068800303D56068002800F06881D0
:10136000207880071BD5B06810F00C0F09D0B0684A
:1013700000F00C00082840F087807068400200F1FF
:1013800083803068800703D5E068012840F05081F1
:101390003068216920F0F80040EAC1003060207810
:1013A000000713D4207840072AD4A569002D00F047
:1013B0003A81B06800F00C00082840F0A580012DAB
:1013C00040F00E81012002B0BDE8F0816069002884
:1013D00000F082800020C4F247200121C0F8801E66
:1013E000FFF7D8FD054600BF706F8007DAD4FFF71E
:1013F000D1FD401B0228F7D9032002B0BDE8F081DF
:10140000306C5FEAC0080AD400200190306C40F0D4
:1014100080503064306C00F080500190019847F2A9
:101420000007C4F200073868C00547D4386840F4A4
:1014300080703860FFF7AEFD054600BF3868C00514
:101440003CD4FFF7A7FD401B0228F7D9032002B0C8
:10145000BDE8F081B06800F00C00082803D1706886
:1014600040023FF576AF61683068B1F5803F07D044
:10147000B1F5A02F40F09A8040F4802030603068B1
:1014800040F4803030609AE0E068002840F20000CC
:10149000C4F247205CD001210160FFF77BFD0546C7
:1014A000306880073FF574AFFFF774FD401B0228DA
:1014B000F6D9032002B0BDE8F08100BFA168306F0B
:1014C000012905D0052955D140F004003067306F5F
:1014D00040F00100306756E00020C4F247200021B0
:1014E000C0F8801EFFF756FD054600BF706F8007ED
:1014F0007FF558AFFFF74EFD401B0228F6D90320B9
:1015000002B0BDE8F08100BF0027C4F247270020E9
:101510003866FFF73FFD022D05460DD1306880018A
:1015200040F18A80FFF736FD401B02284FF0030090
:10153000F4D902B0BDE8F0813068800173D5FFF7BF
:1015400029FD401B02284FF00300F5D9F1E700BF49
:1015500000210160FFF71EFD054600BF30688007CF
:101560007FF51DAFFFF716FD401B02284FF003006B
:10157000F4D9DEE720F001003067306F002920F059
:10158000040030677AD0FFF705FD054641F2883741
:10159000306F800700F18480FFF7FCFC401BB842ED
:1015A000F6D9032002B0BDE8F08100BF20F48030FE
:1015B00030603068002920F4802030607AD0FFF756
:1015C000E9FC0546306880033FF5CAAEFFF7E2FC50
:1015D000401B6428F6D9032002B0BDE8F08100BFAB
:1015E0007068E16900F480028A4221D1216A00F02A
:1015F0003F028A421CD147F6C071626A0140B1EBDA
:10160000821F15D1A16A4FF6FF73C903994300F4F5
:101610004032A1F580318A420AD1E16A00F070605F
:10162000B0EB016F04D1002002B0BDE8F08100BF33
:10163000012002B0BDE8F08104F11C052FCD084364
:1016400040EA8210D9034FF6FF729143A1F5803131
:1016500040EA05600843706001203866FFF79AFC95
:10166000044600BF30688001DDD4FFF793FC001B07
:1016700002284FF00300F5D95BE700BFFFF78AFCB3
:10168000054641F2883700BF306F800708D5FFF765
:1016900081FC401BB8424FF00300F5D949E700BF79
:1016A000B8F1000F3FF581AE306C20F0805030640F
:1016B0007BE600BFFFF76EFC054600BF3068800385
:1016C0007FF54EAEFFF766FC401B64284FF0030029
:1016D000F4D92EE7411E0020B0EB116F1CBF012092
:1016E00070474EF21002CEF2000251604EF62351C6
:1016F000CEF20001F0230B7007219060116070475B
:10170000FEE7000080B540F27001C2F20001886976
:1017100049880022FFF738FCC020BDE8804000F077
:1017200093B900000000000070B586B040F270046C
:10173000DDE90CECDDE90A65C2F20004A06161801C
:1017400001A86946A2802362E6812582A4F812E0FE
:10175000A4F814C0FFF77CFD049D002D18BF0125DF
:10176000FFF796FDA84001F0D0F99FED390B53EC3F
:10177000102B01F0DDF901F09BF943F64001C4F2B2
:1017800002010A68013842F002020A6040F2004198
:10179000C4F200010A6822F010020A600A6822F00E
:1017A00001020A600A6822F004020A600A6842F034
:1017B00008020A6088620920C862012048610A693B
:1017C00022F001020A61207040F20800C2F200001B
:1017D000282101701420FFF7F3FA032000F05CFACF
:1017E0000520FFF7EDFA032000F056FA0120FFF77D
:1017F000E7FA032000F050FA0120FFF7E1FA022097
:1018000000F04AFA0120FFF7DBFAA06961880022A4
:10181000FFF7BAFB0F2000F017F9A06961880022DA
:10182000FFF7B2FB012000F00FF90320FFF7C8FA21
:10183000A06961880022FFF7A7FB282000F004F9C7
:101840000320FFF7BDFA06B070BD00BF00BF00BFA8
:101850008DEDB5A0F7C6B03EB0B586B0044610EE2B
:10186000100A01F063FA41EC100B02AD05A1284605
:1018700022468DED000BFEF7A3FD284600F028F868
:1018800006B0B0BD252E2A660000000010B584B059
:101890006C46024604A12046FEF792FD204600F069
:1018A00017F804B010BD00BF2564000080B540F2F9
:1018B0007001C2F20001886949880022FFF764FBC9
:1018C000012000F0C1F80320BDE88040FFF778BA9E
:1018D00070B50578002D00F0B58040F27006C2F2B8
:1018E00000060446B06971880122FFF74DFB2846C7
:1018F00000F0AAF86578002D00F0A480B069718826
:101900000122FFF741FB284600F09EF8A578002D44
:1019100000F09880B06971880122FFF735FB2846F6
:1019200000F092F8E578002D00F08C80B0697188A5
:101930000122FFF729FB284600F086F82579002DC3
:1019400000F08080B06971880122FFF71DFB2846F6
:1019500000F07AF86579002D74D0B06971880122A1
:10196000FFF712FB284600F06FF8A579002D69D02B
:10197000B06971880122FFF707FB284600F064F880
:10198000E579002D5ED0B06971880122FFF7FCFA7D
:10199000284600F059F8257A002D53D0B069718897
:1019A0000122FFF7F1FA284600F04EF8657A002D83
:1019B00048D0B06971880122FFF7E6FA284600F0A6
:1019C00043F8A57A002D3DD0B06971880122FFF758
:1019D000DBFA284600F038F8E57A9DB3B0697188E3
:1019E0000122FFF7D1FA284600F02EF8257B4DB3EF
:1019F000B06971880122FFF7C7FA284600F024F881
:101A0000657BFDB1B06971880122FFF7BDFA2846F8
:101A100000F01AF8A57B002D08BF70BDB069718871
:101A20000122FFF7B1FA284600F00EF8E47B4CB132
:101A3000B06971880122FFF7A7FA2046BDE870401F
:101A400000F002B870BD0000F0B581B040F2700641
:101A5000C2F200060446307840F21045C4F2000598
:101A600000284FEA141700F0A980306AF18907F0C6
:101A70000102FFF789FA306A318A07F00202FFF7A4
:101A800083FA306A718A07F00402FFF77DFA306A40
:101A9000B18A07F00802FFF777FAB069B18801222E
:101AA000FFF772FA0920E861286820F00100286039
:101AB00055F8100C40F0010045F8100C2868C007DC
:101AC00009D12868C00704BF28685FEAC07002D146
:101AD0002868C007F2D0B069B1880022FFF754FA35
:101AE0003B20E861286820F00100286055F8100CC0
:101AF00040F0010045F8100C2868C00709D128689B
:101B0000C00704BF28685FEAC07002D12868C00718
:101B1000F2D0306AF18904F00102FFF735FA306A39
:101B2000318A04F00202FFF72FFA306A718A04F05A
:101B30000402FFF729FA306AB18A04F00802FFF7BD
:101B400023FAB069B1880122FFF71EFA0920E86183
:101B5000286820F00100286055F8100C40F00100C2
:101B600045F8100C2868C00709D12868C00704BFD1
:101B700028685FEAC07002D12868C007F2D0B06957
:101B8000B1880022FFF700FA3B20E861286820F0C6
:101B90000100286055F8100C40F0010045F8100CC9
:101BA0002868C00776D12868C00704BF28685FEAA4
:101BB000C0706FD12868C007F2D06BE0F069F1887F
:101BC00004F00102FFF7E0F9F069318904F0020244
:101BD000FFF7DAF9F069718904F00402FFF7D4F92C
:101BE000F069B18904F00802FFF7CEF9306AF18993
:101BF00007F00102FFF7C8F9306A318A07F00202E4
:101C0000FFF7C2F9306A718A07F00402FFF7BCF9E6
:101C1000306AB18A07F00802FFF7B6F9B069B188F7
:101C20000122FFF7B1F90920E861286820F00100DE
:101C3000286055F8100C40F0010045F8100C286899
:101C4000C00709D12868C00704BF28685FEAC070D0
:101C500002D12868C007F2D0B069B1880022FFF72E
:101C600093F93B20E861286820F00100286055F8CE
:101C7000100C40F0010045F8100C2868C00709D18D
:101C80002868C00704BF28685FEAC07002D12868CE
:101C9000C007F2D001B0F0BD70B540F27006C2F2DC
:101CA00000060446B069718840F210450022C4F273
:101CB0000005FFF769F9306AF18904F00102FFF7C6
:101CC00063F9306A318A0222FFF75EF9306A718A5D
:101CD0000022FFF759F9306AB18A0022FFF754F960
:101CE000B069B1880122FFF74FF90920E86128683F
:101CF00020F00100286055F8100C40F0010045F874
:101D0000100C2868C00709D12868C00704BF2868DC
:101D10005FEAC07002D12868C007F2D0B069B1880C
:101D20000022FFF731F93B20E861286820F001002C
:101D3000286055F8100C40F0010045F8100C03E045
:101D40002868C00718BF70BD2868C00706D128687A
:101D5000C00704BF28685FEAC070F1D070BD000002
:101D6000FEE70000FEE7000070470000704700003B
:101D7000FFF716B94EF68850CEF20000016841F424
:101D80007001016070470000FEE7000041F21000A2
:101D9000C4F202004168102262F307014160016849
:101DA000C90753D10168890754D40168490753D43E
:101DB00001684268F02363F307020907426067D4B1
:101DC0004168202262F3070141600168C90763D1BD
:101DD0000168890764D40168490765D401684268CD
:101DE000090763F30702426062D44168402262F34C
:101DF000070141600168C9075ED1016889075FD4A6
:101E00000168490760D401684268090763F3070263
:101E100042605DD44168802262F30701416001683D
:101E2000C90759D1016889075AD4016849075BD4A9
:101E300001684268090763F3070242605CBF4FF024
:101E4000FF30704703214FF00C0C0DE04FF0000CF9
:101E5000002104E0012100E002214FF0000C436862
:101E6000F02262F307034360012202FA01F300BF8C
:101E700002681A4208D002681A4205D002681A4263
:101E800002D002681A42F3D101EB0C00704700BF88
:101E900003214FF0000CE7E700214FF0040CDEE7D0
:101EA00001214FF0040CDAE702214FF0040CD6E7D1
:101EB00003214FF0040CD7E700214FF0080CCEE7C8
:101EC00001214FF0080CCAE702214FF0080CC6E7C9
:101ED00003214FF0080CC7E700214FF00C0CBEE7C0
:101EE00001214FF00C0CBAE702214FF00C0CB6E7C1
:101EF00041F21000C4F202000068C0B27047000056
:101F000041F21401C4F202010A6822F0FF021044F7
:101F10000860704796B043F630060025C4F202060A
:101F2000C4F20205FFF74AF80AAC20463021FEF75A
:101F30001EFB00270997CDE90777CDE905770497C0
:101F4000306940F080503061306900F0805004907A
:101F5000049847F200000497CFF6FE70295841F428
:101F600080412950285800F48040049004980220B1
:101F70000A9001200D9010200E9020461097FFF738
:101F8000D3F918B172B600BFFEE700BF4FF00F09DA
:101F900005A80021CDE90597CDE907770997FFF757
:101FA000A5F818B172B600BFFEE700BF00240E947A
:101FB000CDE90C44CDE90A440594306805F5805715
:101FC00040F0100030603068F02100F01000059003
:101FD000059805943068002240F0010030603068B8
:101FE00000F00100059005980594306840F002006B
:101FF00030603068F02600F0020005900598384601
:10200000FEF7C2FF2846F72100224FF0F708FEF73F
:10201000BBFF05F58060F0210022FEF7B5FFCDE99A
:102020000A940C940AAC38462146FEF7DDFE0A9667
:1020300000264FF0010938462146CDE90B960D9652
:10204000FEF7D2FE28462146CDE90A89CDE90C6685
:10205000FEF7CAFE4020202110228027CDE9002172
:1020600002902846012104222B460397FFF75CFBD0
:10207000284602210022FEF787FF42F6E865C0F6F7
:1020800000050AE0FFF73EFB2846FFF721FC4FF46E
:10209000FA60FEF795FEFFF709FCF020FFF730FF2E
:1020A000FFF726FFF028FBD0FFF770FE411CE9D0B8
:1020B00042F6D861C0F6000111F8009004460AA863
:1020C0008DF828908DF82960FFF702FC4FF4FA7024
:1020D000FEF776FEFEF7F4F80121A14048F68802EB
:1020E0001142CFD107460068A9F1300A10F80A0062
:1020F0002028C7D1F020FFF703FF00BFFFF7F8FE4D
:10210000F028FBD0FFF742FE411C19D042F6D861FF
:10211000C0F6000111F800B00AA88DF828B08DF8BB
:102120002960FFF7D5FB4FF4FA70FEF749FE3868D7
:1021300010F80B00202808BF6FF0010B02E000BF71
:102140004FF0FF0BF020FFF7DBFE00BFFFF7D0FEE4
:10215000F028FBD0FFF71AFE411C53D042F6D8619D
:10216000C0F6000111F8008004460AA88DF8288006
:102170008DF82960FFF7ACFB4FF4FA70FEF720FEF4
:102180000120A04048F6880108423BD13868A8F1F8
:102190003005405D202835D1F020FFF7B1FE00BFAB
:1021A000FFF7A6FEF028FBD0FFF7F0FD411C31D071
:1021B00042F6D861C0F600010C5C8DF82960064635
:1021C0000AA88DF82840FFF783FB4FF4FA70FEF75A
:1021D000F7FD0E2E4FF000061CD13868005D202858
:1021E00018D06FF0290050FA8BF0052844D8DFE8AA
:1021F00000F00325431F432B05FB0AF0FFF746FBC6
:1022000030E000BFFFF77EFA42F6E865C0F6000551
:102210003AE700BFFFF776FA42F60770C0F6000013
:10222000FFF756FB42F6E865C0F600052FE700BF52
:10223000A9EB0800FFF72AFB14E000BF05EB0A003A
:10224000FFF724FB0EE000BFB5B100EE10AA01EECF
:10225000105AB8EE400AB8EE411A80EE010A022088
:10226000FFF7FAFA42F6E8654FF4FA70C0F6000597
:10227000FEF7A6FD0BE700BFFFF744FA42F6F96050
:10228000C0F60000CCE75FEA400C08BF91F0000FF9
:102290004FEA8C234FEAC12243EA51514FEA1C50C6
:1022A00018BF00F5F0404FEA300018BF41F0004180
:1022B0005FEA6C5C00F02980BCF1FF3F08BF40F092
:1022C00080407047130C06BF12044FF0100C4FF003
:1022D000000C130E04BF12020CF1080C130F04BF04
:1022E00012010CF1040C930F04BF92000CF1020CCC
:1022F000D30F04BF52000CF1010C11464FF0000245
:10230000A0F11F00A0EB0C00704711F0004F08BFB8
:10231000704731F000413FF4D5AF0B0C06BF090404
:102320004FF0100C4FF0000C0B0E04BF09020CF123
:10233000080C0B0F04BF09010CF1040C8B0F04BF38
:1023400089000CF1020CCB0F04BF49000CF1010C09
:10235000CCF1200322FA03F341EA030102FA0CF262
:10236000A0EB0C0000F101007047000023F07F4754
:1023700020F07F4C80EA030000F00040ACEB070344
:1023800003F57C5303F1FF032DE9804909B44FEABB
:10239000144324EA03484FEA154B25EA0B4E0FF28B
:1023A000042606EB13273E7803FB0667C7F50007F4
:1023B00007FB06F64FEAD64606F102064FEA543707
:1023C00007FB066CCCF1005C4FEA1C472CEA074C7B
:1023D0000CFB06F507FB06F404EB15464FEA9616D0
:1023E00049085FEA320234BF00204FF000404FEA54
:1023F000D13706FB07FC4FEA1C4C0CFB0BF7D21B3A
:1024000003FB0CF761EB07010CFB0EF7B0EB074089
:1024100072EB17420CFB08F734BFA2EB0742B2EB9A
:10242000074261EB17414FEA0C444FEA910706FB64
:1024300007FC4FEA1C4C0CFB0BF7B0EBC74072EBF0
:10244000573203FB0CF734BFA2EBC742B2EBC742D3
:1024500061EB57310CFB0EF7B0EBC70072EB577214
:102460000CFB08F734BFA2EBC702B2EBC70261EB6B
:1024700057714FEA816141EA92114FEA826242EA62
:1024800090124FEA806004EBCC04039F4FEAD137EF
:1024900006FB07FC4FEA1C4C0CFB0BF7D21B03FBA3
:1024A0000CF761EB07010CFB0EF7B0EB074072EB8A
:1024B00017420CFB08F734BFA2EB0742B2EB07420E
:1024C00061EB17414FEA8C5504EB9C244FEA9107CE
:1024D00006FB07FC4FEA1C4C0CFB0BF7B0EBC740AC
:1024E00072EB573203FB0CF734BFA2EBC742B2EBDF
:1024F000C74261EB57310CFB0EF7B0EBC70072EB34
:1025000057720CFB08F734BFA2EBC702B2EBC7024D
:1025100061EB57714FEA816141EA92114FEA8262A1
:1025200042EA90124FEA806015EB4C2544F100041A
:102530004FEAD13706FB07FC4FEA1C4C0CFB0BF7AC
:10254000D21B03FB0CF761EB07010CFB0EF7B0EBA2
:10255000074072EB17420CFB08F734BFA2EB0742AF
:10256000B2EB074261EB17414FEA813141EA9241F8
:102570004FEA823242EA90424FEA80304FEA0C76CC
:1025800015EB1C1544F1000448EA03434EEA0B48DE
:102590004FF0000EB2EB080C71EB030724BF62464C
:1025A00039464EEB0E0E4FF0000B001852414941D8
:1025B0004BEB0B0BB2EB080C71EB03077BF1000B41
:1025C00024BF624639464EEB0E0E4FF0000B00184A
:1025D000524149414BEB0B0BB2EB080C71EB03077B
:1025E0007BF1000B24BF624639464EEB0E0E51EADA
:1025F000020718BF46F0010616EB0E7655F10002F1
:1026000054F1000103D5BDE88901BDE80088BDE8AB
:102610008901BDE80048B619524141EB0101A3F11F
:102620000103704780807F7E7D7C7B7A7978777626
:1026300076757473727171706F6E6E6D6C6C6B6A9F
:102640006A6968686766666564646363626161603D
:10265000605F5F5E5E5D5D5C5C5B5B5A5A595958BA
:102660005857575656555555545453535252525124
:10267000515050504F4F4F4E4E4D4D4D4C4C4C4B7A
:102680004B4B4A4A4A4949494848484747474746C1
:1026900046464545454444444443434343424242FD
:1026A000424141419C46002B30D477002BD04FEA69
:1026B00037071CB503B44FF010004FF01001BAF10A
:1026C000000F06D0BCF1000FDCBF40F0080040F066
:1026D00008014FF000000FBCBDE810400BF1010BEA
:1026E000BBF1010F08BF5FEA170722BF12F1010219
:1026F00011F101014FF0004143F1000300F00040EF
:1027000043EA00007047F9D35708D0E746EA064687
:102710004FEA164613F1400F1FDD13F1200FDFBF04
:1027200016430A46002120335B42BED0C3F1200786
:1027300046EA06464FEA164602FA07F746EA070651
:1027400022FA03F2C3F1200701FA07F742EA07026F
:1027500021FA03F14FF00003A7E746EA020646EA32
:1027600006464FEA164646EA0106BCBF46EA06465A
:10277000360C4FF000034FF000024FF0000194E7D9
:102780002DE9804C70B49A46934691E8380007C80A
:1027900031EA400C48BF34EA430C03D5FFF7E6FDAD
:1027A000FFF780FFF0BCBDE8008C2DE9804C70B4D1
:1027B0009A46934691E8380007C810F0804F08BF4A
:1027C00013F0804F03D100F005F8FFF76BFFF0BC6A
:1027D000BDE8008C20F07F4723F07F4C80EA0300A7
:1027E00000F0004007EB0C03A3F57C53A3F1FE03BC
:1027F00092F0000F00F0B38095F0000F00F07780AA
:102800002DE901494FEA114021EA00484FEA1446F8
:1028100024EA064700FB06FC08FB06F607FB08F85F
:1028200018EB06484CEB164C00FB07F718EB074873
:102830004CEB17404FEA124B22EA0B4E4FEA15467B
:1028400025EA06470BFB06FC0EFB06F607FB0EFE11
:102850001EEB064E4CEB164C0BFB07F71EEB074E20
:102860004CEB174B18EB0B0840F1000018EB0E0B6C
:1028700058EB000840F100008F1A4FF000014FF0B4
:1028800000063CBFC943661B14BFB5EB040C002116
:102890003CBFC943F61B4FEA174427EA04454FEAF9
:1028A0001C472CEA074C04FB076205FB07F70CFBEF
:1028B00005F616EB074642EB174204FB0CFC16EB41
:1028C0000C4642EB1C421BEB060658EB0202414150
:1028D0004EEA8E0E46EA9E0601D5BDE80189B6197C
:1028E000524141EB0101A3F10103BDE801894FEA27
:1028F000144524EA05464FEA114721EA074C05FB37
:1029000007F406FB07F70CFB06F111EB074144EB5C
:10291000174405FB0CFC11EB0C4144EB1C444FEA43
:10292000124722EA074C05FB07F206FB07F70CFBF0
:1029300006F616EB074642EB174205FB0CFC16EBBE
:102940000C4642EB1C456A1854F1000148BF704721
:10295000B619524141EB0101A3F10103704795F013
:10296000000F37D04FEA114221EA02464FEA1447DE
:1029700024EA074C02FB07F106FB07F70CFB06F401
:1029800014EB074441EB174102FB0CFC14EB0C4425
:1029900041EB1C414FEA154725EA074C02FB07F5BE
:1029A00006FB07F70CFB06F616EB074645EB17454B
:1029B00002FB0CFC16EB0C4645EB1C42121951F1C4
:1029C000000148BF7047B619524141EB0101A3F124
:1029D000010370474FEA144524EA05464FEA1147C0
:1029E00021EA074C05FB07F106FB07F70CFB06F293
:1029F00012EB074241EB174105FB0CFC12EB0C42BA
:102A000051EB1C414FF0000648BF7047921841EB54
:102A10000101A3F10103704703B40198410000983C
:102A200050EAC12018BF04204A0D18BF40F0010031
:102A300040F2FF72B2EB515F08BF40F00200012884
:102A400008BF052002B0704730380A2801D20120A3
:102A5000704700207047000010B500290AD00878A0
:102A6000002807D005487844FEF732F9002801D045
:102A7000002010BD0248784410BD0000D2040000C0
:102A8000CA04000010B500290AD00878002807D031
:102A900005487844FEF71CF9002801D0002010BD3D
:102AA0000248784410BD0000B6050000AE050000E5
:102AB0004FEA1153A3F58063D3F11E03A8BFD3F1EE
:102AC000200C08DB4FF0004242EAC12252EA505289
:102AD00032FA03F0704709420BD4102BC4BF002018
:102AE000704703F5787CBCF1FF3F05D04FF0FF3015
:102AF00070474FF00000704770B500F0C3F800BF9A
:102B00004992248000207047F0E7B0FA80F310FA71
:102B100003F10AD0C3F11D0303F580634FEA0352AA
:102B20004FEA415002EBD12170474FF0000070474F
:102B300070B5DFF848C11CEA111E1EBF1CEA131550
:102B40009EEA0C0F95EA0C0F00F06F8081EA0304F7
:102B50004EEAD47EAE4421EA4C1123EA4C1341F4F0
:102B6000801143F48013AEF17F7EA1FB024CA0FBE9
:102B70000365361955EB0C05A1FB034C4CF1000322
:102B8000A0FB021C16EB0C06654153F10003094241
:102B900018BF46F0010613F4007F0BD14FEA033152
:102BA0004FEA053041EA155140EA165034036FF000
:102BB00003020AE04FEAC3214FEAC52041EA55511A
:102BC00040EA5650F4026FF0020202EB2E4201EB93
:102BD000025585EACE710AD05FEA440C18BF24F092
:102BE000004450F1000041F1000120EAD47040F2AD
:102BF000FE7C624500D270BDA84214BF4FF08044F5
:102C00004FF04044002E08BF0024BEF1806FA8BFE3
:102C1000A1F1C041BDE8704080F2828001F1C04165
:102C200001F000414FF0000070470CEA13159EEAD6
:102C30000C0F18BF95EA0C0F06D081EA030E4FF077
:102C400000000EF0004170BD00F01CF88900013E4C
:102C500000F007B800F009B84FEA430C5FEA5C5C8B
:102C600008D081EA030100F05BB84FEA410C5FEA4B
:102C70005C5CF6D102494FF0000070470000FF078E
:102C80000000F87F0EF1020E2EF0030E5EF8046BCA
:102C9000364205D4012A43EB030515F5001F12D86F
:102CA000012841EB010C1CF5001F0CD80ED14FEA96
:102CB000D17C0CEB4C0C0CF1020C15F5001F08BF7D
:102CC0004CEBD37C04E04FF0080C01E04FEAD37CDE
:102CD0000CEB4C0526FA05F606F00706B6F1040CD7
:102CE00006D20EEB860CBDE870404CF0010C60473C
:102CF000DFE80CF0090B02024FF00041A1F50021C2
:102D00004FF0000070BD19461046012851EB010438
:102D100018BFD4F5001484BF002001F0004170BD3D
:102D20000808A0F500114FEA3101704743004FEA4F
:102D3000D30C4FEA3C0C43401FBF40070CF16051DD
:102D400013F0FE4F70471CF0006F03D10CF00041F0
:102D5000002070470CF0004343EA507040EACC007A
:102D600010B500F00EF800BF000000924FEA00011D
:102D7000FFF7D6BF4FF00041A1F500214FF0000052
:102D800070470EF1020E2EF0030E5EF8044B244243
:102D900004D44FEA4102B2F17F4F11D84FEA400309
:102DA000B3F17F4F0CD80ED14FEAD07C0CEB4C0C1A
:102DB0000CF1020CB2F17F4F08BF4CEBD17C04E068
:102DC0004FF0080C01E04FEAD17C0CEB4C0324FAE5
:102DD00003F404F00704B4F1040C06D20EEB840CE7
:102DE000BDE810404CF0010C6047DFE80CF007082C
:102DF00002024FF00040A0F5800010BD08464200DE
:102E000018BFD2F1807288BF00F0004010BDF1EE13
:102E1000100A4FF6FF71C0F2C03120EA010040F005
:102E20004070E1EE100A7047FDF701BD024000005E
:102E3000000000A00000000005400000000000C8E5
:102E4000000000000C4000000000409C000000005A
:102E5000194000000020BCBE00000000344000000B
:102E6000BFC91B8E00000004B5400000504BCFD0FE
:102E70006607E2CF010000006C4100003E8251AACB
:102E8000DFEEA73401000000D9420000DCB5A0E26B
:102E90003A301F97FFFFFFFFB4450000FD25A0C893
:102EA000E9A3C14FFFFFFFFFFF3F000000000080CC
:102EB00000000000FF3F0000000000800000000054
:102EC00000000000000000000102030406070809DA
:102ED00000000000010203043738392F3435362A48
:102EE0003132332B43303D2D4552524F5220494E03
:102EF000204B45595041442100494E56414C4944CC
:102F000020455850522100494E56414C49442049D1
:102F10004E50555421000000683000080000002089
:102F200010000000EC0100087830000810000020BC
:102F3000880600000C020008100100004300000099
:102F4000F8FFFFFF004040404040404040404141CA
:102F5000414141404040404040404040404040406E
:102F60004040404040050202020202020202020208
:102F70000202020202202020202020202020200205
:102F80000202020202029090909090901010101095
:102F90001010101010101010101010101010101031
:102FA00002020202020288888888888808080808C5
:102FB0000808080808080808080808080808080891
:102FC00002020202400000000000000000000000B9
:102FD00000000000000000000000000000000000F1
:102FE00000000000000000000000000000000000E1
:102FF00000000000000000000000000000000000D1
:1030000000000000000000000000000000000000C0
:1030100000000000000000000000000000000000B0
:1030200000000000000000000000000000000000A0
:103030000000000000000000000000000000000090
:1030400000000000000000001C0000004300000021
:10305000F8FFFFFF0C0000000E0000000F00000052
:103060002E00000000000000010000001000000021
:08307000380000000024F40008
:040000050800018965
:00000001FF
