:020000040800F2
:100000001007002055020008A9120008A1120008DC
:10001000A512000809050008B5130008000000003B
:10002000000000000000000000000000B112000805
:100030000D05000800000000AD120008B512000810
:100040006F0200086F0200086F0200086F020008CC
:100050006F0200086F0200086F0200086F020008BC
:100060006F0200086F0200086F0200086F020008AC
:100070006F0200086F0200086F0200086F0200089C
:100080006F0200086F0200086F0200086F0200088C
:100090006F0200086F0200086F0200086F0200087C
:1000A0006F0200086F0200086F0200086F0200086C
:1000B0006F0200086F0200086F0200086F0200085C
:1000C0006F0200086F0200086F0200086F0200084C
:1000D0006F0200086F0200086F0200086F0200083C
:1000E0006F0200086F0200086F0200086F0200082C
:1000F0006F0200086F0200086F0200086F0200081C
:100100006F0200086F0200086F0200086F0200080B
:100110006F0200086F0200086F0200086F020008FB
:100120006F0200086F0200086F0200086F020008EB
:100130006F0200086F0200086F0200086F020008DB
:100140006F0200086F0200086F0200086F020008CB
:100150006F0200086F0200086F0200086F020008BB
:100160006F0200086F0200086F0200086F020008AB
:100170006F0200086F0200086F0200080000000014
:100180006F0200086F02000800F002F800F052F859
:1001900014A696E8000CB244B344DA4501D100F04D
:1001A00049F8BAE80F000FA696E83000A5EB040561
:1001B00004EB0607AAEB0704A7F101074FEA1515A0
:1001C0004FEA3414A4F10104AC4201D300F032F838
:1001D00013F0010F18BFFB1A43F0010300F001F800
:1001E000DBE718478C150000AC150000103A24BF5F
:1001F00078C878C1FAD8520724BF30C830C144BF8C
:1002000004680C6070470000704700000023002461
:1002100000250026103A28BF78C1FBD8520728BF16
:1002200030C148BF0B6070471FB501F087FA1FBD92
:1002300010B510BD00F02DF91146FFF7F5FF01F0E4
:10024000BBF800F04BF903B4FFF7F2FF03BC00F07A
:1002500053F900000948804709480047FEE7FEE7D8
:10026000FEE7FEE7FEE7FEE7FEE7FEE7FEE7FEE766
:1002700004480549054A064B70470000B9120008BA
:100280008901000810010020100700201003002041
:100290001003002053EA020C00F069802DE9F04BB6
:1002A0004FF00006002B1FBFB3FA83F503FA05F4E5
:1002B00024FA05F65E4012BF1643B2FA82F502FA3E
:1002C00005F4C5F120051EBF22FA05FC44EA0C0422
:1002D000203556EA044C4FEA144418BF641C4FF012
:1002E00000084FF00009904271EB030C39D300294C
:1002F00019BFB1FA81F701FA07F6B0FA80F700FAF0
:1003000007F6C7F120071EBF20FA07FC46EA0C06D5
:100310002037B6FBF4FCA7EB0507103F07F01F0BD7
:10032000CBF120062CFA06F60CFA0BFB44BFB346C1
:100330000026202FA4BF5E464FF0000B5BEA060CA0
:1003400008BF4FF0010B19EB0B0948EB0608ABFB9C
:10035000027C06FB02CC0BFB03CCC01B71EB0C0137
:10036000C1E70B46024641464846BDE8F08B13B54F
:10037000084318BF4FF0FF300146AFF30080BDE8DF
:100380001C40704710B5431C02E010F8011B71B10E
:100390008107FAD14FF0013202C88C1A8C4314EA5B
:1003A000C211F9D0C01A0A0603D0C01E10BDC01A6F
:1003B00010BD0A0401D0801E10BD0902FCD0401EF1
:1003C00010BD4FF0000200B5134694469646203902
:1003D00022BFA0E80C50A0E80C50B1F12001BFF4FE
:1003E000F7AF090728BFA0E80C5048BF0CC05DF864
:1003F00004EB890028BF40F8042B08BF704748BFB2
:1004000020F8022B11F0804F18BF00F8012B704725
:1004100030B44FF0013C50F8042B51F8043BCCFAB7
:1004200052F4D51A20D1FCB950F8042B51F8043BF2
:10043000CCFA52F4D51A17D1B4B950F8042B51F8AC
:10044000043BCCFA52F4D51A0ED16CB950F8042BF7
:1004500051F8043BCCFA52F4D51A05D1002CDAD06D
:1004600030BC4FF00000704729BAB1FA81F111F0A9
:100470001801D1F120008440F2D1CA40CB4012F0E3
:10048000FF0213F0FF0330BCD01A7047704770476B
:100490007047754600F02CF8AE4605006946534695
:1004A00020F00700854618B020B5FFF7E1FEBDE853
:1004B00020404FF000064FF000074FF000084FF0CB
:1004C000000BAC46ACE8C009ACE8C009ACE8C00918
:1004D000ACE8C00921F007018D46704710B504460D
:1004E000AFF300802046BDE81040FFF7ACBE00002F
:1004F000004870471000002001491820ABBEFEE7FD
:100500002600020070470000FEE700007047000070
:100510002DE9F04F83B000F1200200F13E4741F693
:100520000045009207F1FF77C4F2020508224FEA66
:10053000B726A84208BF072200254FF000084FF059
:100540000009072E38BF4FEAB72201920AE000BF28
:1005500009F1010908F10208B9F1100F05F10405CC
:1005600000F0A2800F68012202FA09FE17EA0E0AC3
:10057000EED0D1F804C003220CF003077E1E02FA6D
:1005800008F4012E6FEA040B12D88468CE6804EADE
:100590000B0406FA08F634438460446824EA0E0625
:1005A000CCF3001404FA09F42643466004E000BFCB
:1005B000032F01D103271EE0C6688C6806EA0B06EC
:1005C00004FA08F42643022FC66014D16FF0030228
:1005D000009E02EA590756F807C005F01C040F22D6
:1005E0000B69A2402CEA0202A3401A43F251D1F84F
:1005F00004C00CF00307026807FA08F302EA0B02D2
:100600001A431CF4403F0260A2D0002243F6440388
:100610000292C4F202031A6843F6004442F4804294
:100620001A601A68C4F2010402F480420292029A2B
:1006300029F003024FF6084C2244CFF6FF7C52F813
:100640000C3005F00C070F26BE40B343019E06FA9E
:1006500007F73B4342F80C30A2684B6842EA0A07AE
:1006600043F60C4CDE0258BF22EA0A07A760C4F228
:10067000010CDCF800209E0242EA0A0758BF22EA79
:100680000A07CCF8007062689E0342EA0A0758BF66
:1006900022EA0A0767602268DB0342EA0A0758BFBA
:1006A00022EA0A07276053E703B0BDE8F08F000095
:1006B00040F20810C2F200000068704740F20000EB
:1006C00040F20811C2F20000C2F2000100780A688C
:1006D000104408607047000080B543F60040C4F243
:1006E0000200016841F400710160016841F4806119
:1006F0000160016841F480710160032000F074F82A
:100700000F2000F005F800F027F8002080BD000061
:1007100070B540F20006C2F2000640F208013278DD
:10072000C2F200014FF47A730968B3FBF2F2044697
:10073000B1FBF2F1084600F04FFB0F2C4FF0010522
:1007400008D838B94FF0FF3021460022002500F0CC
:100750001FF87460284670BD82B0002043F6400147
:100760000190C4F202014A6842F480424A604A6839
:1007700002F480420192019A0090086840F0805093
:100780000860086800F080500090009802B0704740
:1007900010B54EF60C5CCEF2000CDCF80030C3F362
:1007A000022E8EF00704042C28BF0424BEF103039C
:1007B0004FF0FF3E0EFA04F438BF0023A1439940E6
:1007C0000EFA03F39A43114300F00F0200F1604365
:1007D0000901043A03F564436244002848BF02F16A
:1007E0000C03197010BD00004EF60C51CEF2000142
:1007F0000A684FF6FF031A4060F30A2242F0806055
:1008000040F0FD7008607047002804BF0120704769
:100810002DE9F04143F60808C4F202080446D8F86E
:10082000F8030D4600F00700814207D988F8F85315
:10083000D8F8F80300F00700A84277D120688107B4
:1008400017D5410705D5D8F8001041F4E051C8F894
:100850000010010705D5D8F8001041F46041C8F830
:100860000010D8F80010A26821F0F0011143C8F878
:100870000010C00740D1D8F8F80300F00700854207
:1008800007D288F8F853D8F8F80300F00700A84218
:100890004CD12068410707D5D8F80010E26821F450
:1008A000E0511143C8F80010000708D5D8F800003F
:1008B000216920F4604040EAC100C8F8000000F05F
:1008C0007DF8D8F8001041F25672C1F30311C0F65A
:1008D0000002515C40F2080220FA01F140F20400EB
:1008E000C2F200000068C2F200021160FFF710FFC0
:1008F0000020BDE8F08100BF6068811E022907D298
:1009000058F8081C89015CBF0120BDE8F08111E0A6
:10091000012807D158F8081C89035CBF0120BDE8F5
:10092000F08107E058F8081C890703D40120BDE8CE
:10093000F08100BFD8F8001021F003010843C8F887
:100940000000FFF7B5FE064641F28837D8F80000F0
:10095000616800F00C00B0EB810F8CD0FFF7A8FEAF
:10096000801BB842F2D90320BDE8F08140F20800B4
:1009700043F60801C2F20000C4F2020100680968EF
:1009800041F26672C1F38221C0F60002515CC84098
:100990007047000040F2080043F60801C2F2000070
:1009A000C4F202010068096841F26672C1F3423183
:1009B000C0F60002515CC8407047000010B543F615
:1009C0000404C4F202046168C1F3810142F20040F0
:1009D000C0F2F400DFE801F002040A0210BD00BF1B
:1009E00047F64000C0F27D1010BD00BF20682168AE
:1009F0002368490247F64001C0F27D1100F03F0232
:100A0000C3F388105CBF42F20041C0F2F401A1FBC5
:100A100000010023FFF73EFC21680222C1F30141DF
:100A200002EB4101B0FBF1F010BD0000002804BF53
:100A3000012070472DE9F04182B00446007843F66A
:100A40000006C007C4F202060CD0B06800F00C002B
:100A5000042840F081803068800303D56068002856
:100A600000F06881207880071BD5B06810F00C0F6B
:100A700009D0B06800F00C00082840F0878070684A
:100A8000400200F183803068800703D5E0680128C8
:100A900040F050813068216920F0F80040EAC10040
:100AA00030602078000713D4207840072AD4A56945
:100AB000002D00F03A81B06800F00C00082840F0EA
:100AC000A580012D40F00E81012002B0BDE8F0812B
:100AD0006069002800F082800020C4F247200121D4
:100AE000C0F8801EFFF7E4FD054600BF706F800769
:100AF000DAD4FFF7DDFD401B0228F7D9032002B04E
:100B0000BDE8F081306C5FEAC0080AD40020019093
:100B1000306C40F080503064306C00F080500190B8
:100B2000019847F20007C4F200073868C00547D4AF
:100B3000386840F480703860FFF7BAFD054600BFA2
:100B40003868C0053CD4FFF7B3FD401B0228F7D935
:100B5000032002B0BDE8F081B06800F00C00082866
:100B600003D1706840023FF576AF61683068B1F537
:100B7000803F07D0B1F5A02F40F09A8040F480204C
:100B80003060306840F4803030609AE0E0680028DF
:100B900040F20000C4F247205CD001210160FFF761
:100BA00087FD0546306880073FF574AFFFF780FD8D
:100BB000401B0228F6D9032002B0BDE8F08100BF37
:100BC000A168306F012905D0052955D140F00400F6
:100BD0003067306F40F00100306756E00020C4F20B
:100BE00047200021C0F8801EFFF762FD054600BFC8
:100BF000706F80077FF558AFFFF75AFD401B022842
:100C0000F6D9032002B0BDE8F08100BF0027C4F28E
:100C1000472700203866FFF74BFD022D05460DD112
:100C20003068800140F18A80FFF742FD401B0228B6
:100C30004FF00300F4D902B0BDE8F08130688001C4
:100C400073D5FFF735FD401B02284FF00300F5D99F
:100C5000F1E700BF00210160FFF72AFD054600BF54
:100C6000306880077FF51DAFFFF722FD401B02288B
:100C70004FF00300F4D9DEE720F001003067306F59
:100C8000002920F0040030677AD0FFF711FD0546F7
:100C900041F28837306F800700F18480FFF708FD4C
:100CA000401BB842F6D9032002B0BDE8F08100BF76
:100CB00020F4803030603068002920F480203060DB
:100CC0007AD0FFF7F5FC0546306880033FF5CAAEE1
:100CD000FFF7EEFC401B6428F6D9032002B0BDE804
:100CE000F08100BF7068E16900F480028A4221D17E
:100CF000216A00F03F028A421CD147F6C071626A45
:100D00000140B1EB821F15D1A16A4FF6FF73C903F1
:100D1000994300F44032A1F580318A420AD1E16A58
:100D200000F07060B0EB016F04D1002002B0BDE8AC
:100D3000F08100BF012002B0BDE8F08104F11C0584
:100D40002FCD084340EA8210D9034FF6FF7291433A
:100D5000A1F5803140EA05600843706001203866E3
:100D6000FFF7A6FC044600BF30688001DDD4FFF722
:100D70009FFC001B02284FF00300F5D95BE700BF82
:100D8000FFF796FC054641F2883700BF306F8007B9
:100D900008D5FFF78DFC401BB8424FF00300F5D992
:100DA00049E700BFB8F1000F3FF581AE306C20F08D
:100DB000805030647BE600BFFFF77AFC054600BF39
:100DC000306880037FF54EAEFFF772FC401B64284D
:100DD0004FF00300F4D92EE7411E0020B0EB116F55
:100DE0001CBF012070474EF21002CEF2000251608B
:100DF0004EF62351CEF20001F0230B7007219060D4
:100E000011607047002804BF0120704710B50446E8
:100E100090F8410028B9002084F84000204600F0F6
:100E200021F8242084F841002068C16821F4005191
:100E3000C160204600F04AFA2068016921F490411F
:100E40000161416921F02A014161C16841F4005109
:100E5000C16000202021606484F8411084F84210B1
:100E6000606310BD80B586B041F200010068C4F235
:100E70000101002288420592CDE9032202920192EB
:100E800002D006B080BD00BF43F630000092C4F22D
:100E90000200436943F010034361436903F0100308
:100EA0000093009B0092036843F001030360006815
:100EB00000F00100009000984FF4C0600190022003
:100EC000CDE90202032004900720059001F570404F
:100ED00001A9FFF71DFB06B080BD00002DE9F0431E
:100EE00081B0044690F84200202809D188460029A4
:100EF0004FF0010018BF002A06D101B0BDE8F08311
:100F0000022001B0BDE8F083002022211D4660646C
:100F100084F8421020631646FFF7CAFBA685E685D3
:100F2000A1680746B1F5805F02D12069002851D041
:100F300046464FF00008E08D00284FD005F101092A
:100F40000CE000BF406800266FF35F2028F8020B1A
:100F5000E08D0138E085E08D00283FD020680168F1
:100F6000890617D4B9F1000F22D0002D00F0CA80F5
:100F7000FFF79EFBC01BA84200F2BC802068C1683E
:100F8000490744BF01685FEA01712FD401688906EF
:100F9000EED500BF002ED5D0A168B1F5805F15D089
:100FA00009B9216991B1406800F07F000FE000BFEE
:100FB00001688906EED4016889065CBF01685FEAB2
:100FC0008161E7D401688906F2D5E3E7406806F855
:100FD000010BBDE70026E08D0028AFD100202021C5
:100FE00084F8421001B0BDE8F08300BF00210091F9
:100FF0000168009140680090009800BF206850E8A8
:10100000030F216820F4907041E80302BAB320680E
:1010100050E8030F216820F4907041E8030272B396
:10102000206850E8030F216820F4907041E8030223
:101030002AB3206850E8030F216820F4907041E83B
:101040000302002ADAD11AE0206850E8050F21686F
:1010500020F0010041E80502DAB1206850E8050FF0
:10106000216820F0010041E8050292B1206850E8B3
:10107000050F216820F0010041E805024AB120680F
:1010800050E8050F216820F0010041E80502002A20
:10109000DAD1206B012824D1206850E8030F2168A1
:1010A00020F0100041E80302DAB1206850E8030F95
:1010B000216820F0100041E8030292B1206850E856
:1010C000030F216820F0100041E803024AB12068B4
:1010D00050E8030F216820F0100041E80302002AC5
:1010E000DAD1202084F842000020082120636164C6
:1010F00084F840000320202184F8421001B0BDE8AC
:10110000F08300BFFFF7D4FAF4E700002DE9F043C5
:1011100081B0044690F84100202809D100294FF001
:10112000010018BF002A07D101B0BDE8F08300BF5D
:10113000022001B0BDE8F0830020606421201D463C
:101140000E4684F841001746FFF7B2FAA784E784F9
:10115000A1688146B1F5805F02D1206900285DD089
:1011600037460020E28C2168002A5DD06A1C24D01A
:10117000002D4AD0804600BF0868000608D4FFF75B
:1011800097FAA0EB0900A8427AD82168C868F3E76B
:1011900017B117F8010B04E038F8020B00276FF3C2
:1011A0005F204860E08C0138E084E08C0028E3D1C7
:1011B0003AE000BF0A68120609D40A68120606D48B
:1011C0000A6812065CBF0A685FEA0262F2D51FB1C4
:1011D00017F8012B05E000BF30F8022B00276FF352
:1011E0005F224A60E28C013AE284E28C002AE4D178
:1011F0001AE000BF30F8022B00276FF35F224A602D
:10120000E28C013AE284E28C72B10A68120635D5AA
:10121000002FEFD017F8012BF1E700BF0027304671
:10122000E28C2168002AA1D1086840061ED42DB3A3
:10123000681C14D1086840062AD40868400627D4E0
:101240000868400624D4086840064FF00000F1D535
:101250000DE000BF2068C1680068400618D4FFF7A1
:1012600027FAA0EB0900A842F4D909E000202021C8
:1012700084F8411001B0BDE8F08300BFFFF718FA11
:101280000320202184F8411001B0BDE8F08300BFA5
:101290000020202184F8411001B0BDE8F083000057
:1012A000FEE70000FEE70000FEE7000070470000D8
:1012B00070470000FFF702BA4EF68850CEF20000E9
:1012C000016841F47001016070470000B0B5044648
:1012D000006804F108030ECB0569194325F4405555
:1012E0002A4302616269E3691143C268194349F202
:1012F0000C639A431143C1604169A26921F44071B2
:1013000041F20043114340F48062C4F201039A4267
:10131000416103D1FFF73EFB02E000BFFFF726FB70
:10132000E1694FF69C7563681922C0F6FF75B1F547
:10133000004FA0FB02011FD15A00DB0FFEF7AAFFEE
:1013400048F21F51C5F2EB11A0FB01235A0905F128
:10135000805302FB0300322303EBC000A0FB01011A
:101360004FF4F87000EA111000EB0210C1F34211C3
:10137000084421688860B0BD9A009B0FFEF78AFF81
:1013800048F21F51C5F2EB11A0FB01235A0902FBE1
:101390000500322303EB0010A0FB0101F02000EA5E
:1013A000511000EB0210C1F343110844216888601A
:1013B000B0BD0000FEE7000092B043F6300647F2F1
:1013C0000005C4F20206C4F20005FFF785F906AC79
:1013D00020463021FEF7F5FF00270597CDE903777A
:1013E000CDE901770097306940F080503061306975
:1013F00000F08050009000980097286840F48040EA
:101400002860286800F48040009000980220069030
:101410000120099010200A9020460C97FFF706FB48
:1014200010B172B6FEE700BF0F20CDE9010701A899
:101430000021CDE903770597FFF7E6F910B172B601
:10144000FEE700BF4FF00009CDF81890306805F5B1
:10145000204140F00100306030680C2300F00100B2
:101460000690069840F2C000C2F200004FF4E1324C
:1014700080E80602C0E90399C0E90539C0F81C906C
:10148000FFF7C0FC10B172B6FEE700BF40F2C00427
:1014900040F2700AC2F2000406AEC2F2000A0FF275
:1014A000542813E00AEB050080F840900AF1100080
:1014B0000AF13001FEF7ACFF002800F0C58020469D
:1014C00090A127224FF0FF33FFF720FE204674A1A2
:1014D00011224FF0FF33FFF719FE002702E000BF93
:1014E0000F2F13D22046314601224FF0FF33FFF772
:1014F000F5FC0028F4D19DF818000A2806D00D2824
:1015000004D00AF807000137EAE700BF00252046AB
:1015100068A112224FF0FF330AF80750FFF7F6FDDB
:1015200002E000BF0F2D13D22046314601224FF0BA
:10153000FF33FFF7D3FC0028F4D19DF818000A28E8
:1015400006D00D2804D00AEB050101350874E9E73F
:101550000AEB05000025057420465BA112224FF01E
:10156000FF33FFF7D3FD01E00F2D15D220463146A2
:1015700001224FF0FF33FFF7B1FC0028F4D19DF8B2
:1015800018000A2808D00D2806D00AEB05010135FD
:1015900081F82000E8E700BF0AEB05004FF0000BE0
:1015A00080F820B020464DA109224FF0FF33FFF70D
:1015B000ADFD20464CA10A224FF0FF33FFF7A6FDF8
:1015C00003E000BFBBF10F0F16D2204631460122C7
:1015D0004FF0FF33FFF782FC0028F3D19DF818008D
:1015E0000A2809D00D2807D00AEB0B010BF1010BDB
:1015F00081F83000E6E700BF0AEB0B00002580F819
:101600003050204641460C224FF0FF33FFF77EFD5D
:1016100003E000BF0F2DBFF445AF20463146012245
:101620004FF0FF33FFF75AFC0028F3D19DF8180064
:101630000A283FF437AF0D283FF434AF0AEB050119
:10164000013581F84000E5E70AF120000AF1400188
:10165000FEF7DEFE00287FF432AF40F2C004C2F293
:10166000000432A120460B224FF0FF33FFF74EFD5E
:1016700040F27005C2F200052846FEF783FE82B2F2
:10168000204629464FF0FF33FFF740FD2AA12046B0
:1016900002224FF0FF33FFF739FD00BFFEE700BF26
:1016A000456E74657220796F7572204E616D653A72
:1016B000200000000D0A456E746572205573657236
:1016C0006E616D653A2000000D0A456E74657220EA
:1016D00050617373776F72643A2000000D0A4C6F8B
:1016E00067696E0D0A000000557365726E616D6565
:1016F0003A2000000D0A50617373776F72643A20CC
:10170000000000000D0A4572726F723A20496E7631
:10171000616C696420557365726E616D65206F72CE
:101720002050617373776F72640D0A000D0A57655C
:101730006C636F6D652C20000D0A0000F1EE100A3D
:101740004FF6FF71C0F2C03120EA010040F0407056
:10175000E1EE100A704700000000000000000102E6
:10176000030406070809000000000102030400004A
:10177000901700080000002010000000EC01000895
:10178000A017000810000020000700000C0200084D
:1017900001000000100000000024F4000000000020
:040000050800018965
:00000001FF
